S00D000074696D65722E73726563F6
S11300000C9434000C94BF000C94EA000C9451003E
S11300100C9451000C9451000C9451000C94510018
S11300200C9451000C9451000C9451000C94510008
S11300300C9451000C9451000C9401010C94510047
S11300400C9451000C9451000C9451000C945100E8
S11300500C9451000C9451000C9451000C945100D8
S11300600C9451000C94510011241FBECFEFD8E022
S1130070DEBFCDBF11E0A0E0B1E0E6E7F2E002C0F0
S113008005900D92AE30B107D9F721E0AEE0B1E0B2
S113009001C01D92A031B207E1F70E9453000C94F5
S11300A039010C940000CF93DF93CDB7DEB78AE219
S11300B090E0FC0110828BE290E02FEFFC012083A2
S11300C087E290E02FEFFC01208384E290E02FEFA1
S11300D0FC01208384E490E022E0FC01208385E499
S11300E090E023E0FC01208387E490E029EFFC0109
S11300F020838EE690E022E0FC01208389E690E0F4
S11301002AE0FC0120838DE390E023E0FC012083BE
S1130110789485E290E020910001FC01208388E23C
S113012090E020910001FC01208385E290E0209181
S11301300E01222F30E020503F4FF9012081FC01B5
S1130140208380910E018A3069F480910F018F5FC2
S113015080930F0180910F018A3011F410920F01E6
S113016010920E0188E290E020910F01222F30E0DE
S113017020503F4FF9012081FC012083D6CF1F92EC
S11301800F9200905F000F9211248F939F93CF934F
S1130190DF93CDB7DEB780910A0190910B01892BD3
S11301A051F480910A0190910B01019690930B01F7
S11301B080930A0104C010920B0110920A010000FE
S11301C0DF91CF919F918F910F9000925F000F90DC
S11301D01F9018951F920F9200905F000F921124A8
S11301E0CF93DF93CDB7DEB710920E0110920F01BB
S11301F00000DF91CF910F9000925F000F901F904D
S113020018951F920F9200905F000F9211242F9364
S11302108F939F93CF93DF93CDB7DEB780910C017B
S113022090910D01883E934079F410920D01109243
S11302300C0180910A0190910B01019729F480919E
S11302400E018F5F80930E0180910C0190910D013E
S1130250019690930D0180930C010000DF91CF91E2
S11302609F918F912F910F9000925F000F901F909C
S10902701895F894FFCF7D
S11102767E306D79335B5F707F7B0100010089
S9030000FC
