S00D000055534152542E7372656388
S11300000C9424010C94A6010C9441010C9441011C
S11300100C9441010C9441010C9441010C94410154
S11300200C9441010C9441010C9441010C94410144
S11300300C9441010C9441010C9441010C94410134
S11300400C9441010C9441010C94E6010C9441017F
S11300500C9441010C9441010C9441010C94410114
S11300600C9441010C944101000000000000005F69
S113007000000007000700147F147F14242A7F2A3D
S11300801223130864623649552250000503000008
S1130090001C2241000041221C0014083E081408E0
S11300A0083E0808005030000008080808080060EE
S11300B060000020100804023E5149453E00427F82
S11300C0400042615149462141454B311814127F89
S11300D01027454545393C4A494930017109050312
S11300E03649494936064949291E0036360000007A
S11300F0563600000814224100141414141400414C
S11301002214080201510906324979413E7E111137
S1130110117E7F494949363E414141227F41412276
S11301201C7F494949417F090909013E4149497AEE
S11301307F0808087F00417F41002040413F017F44
S1130140081422417F404040407F020C027F7F041C
S113015008107F3E4141413E7F090909063E415155
S1130160215E7F09192946464949493101017F0128
S1130170013F4040403F1F2040201F3F4038403F48
S11301806314081463070870080761514945430064
S11301907F41410002040810200041417F00040215
S11301A00102044040404040000102040020545435
S11301B054787F48444438384444442038444448BC
S11301C07F3854545418087E0901020C5252523E8E
S11301D07F0804047800447D40002040443D007FB3
S11301E01028440000417F40007C041804787C08F7
S11301F004047838444444387C141414080814144F
S1130200187C7C080404084854545420043F444097
S1130210203C4040207C1C2040201C3C4030403C82
S113022044281028440C5050503C4464544C44001E
S11302300836410000007F00000041360800100825
S1130240081008000000000011241FBECFEFD8E002
S1130250DEBFCDBF11E0A0E0B1E0E4EBF9E002C005
S113026005900D92AE3DB107D9F723E0AEEDB1E0B4
S113027001C01D92AA3DB207E1F70E9454010C94FB
S1130280D8040C9400009093C5008093C40088E9BE
S11302908093C1008EE08093C200089590E2909311
S11302A0C0008093C600089580E48AB981E087B9CC
S11302B094E09BB992E0909369008DBB789483EAB3
S11302C084BD85E085BD17BC87E690E00E944301AC
S11302D080910001909101010197D1F70E947D0363
S11302E00E94D50361E082E091E00E949D046AE0EF
S11302F080E00E94AE0461E08DE091E00E949D04E4
S113030064E180E00E94AE0461E08CE191E00E942F
S11303109D046EE180E00E94AE0461E085E291E01C
S11303200E949D0468E280E00E94AE0461E080E3E4
S113033091E00E949D0462E380E00E94AE040E946A
S1130340B3041092010110920001C2CF1F920F92C8
S11303500FB60F9211242F933F934F935F936F9394
S11303607F938F939F93AF93BF93EF93FF930E94D9
S11303707D030E94D50361E089E391E00E949D041E
S113038064E180E00E94AE040E94B3042FEF8BE787
S113039092E9215080409040E1F700C0000081E0E4
S11303A090E09093010180930001FF91EF91BF9140
S11303B0AF919F918F917F916F915F914F913F91F9
S11303C02F910F900FBE0F901F9018951F920F92B0
S11303D00FB60F9211240F931F932F933F934F93B4
S11303E05F936F937F938F939F93AF93BF93CF93B9
S11303F0EF93FF93C091C600CC3601F581E088B934
S11304000E947D030E94D50361E080E491E00E9494
S11304109D046AE080E00E94AE040E94B3042FEFC2
S113042087EA91E6215080409040E1F700C0000047
S113043081E090E09093010180930001C436F9F4C7
S113044018B80E947D030E94D50361E081E591E024
S11304500E949D046AE080E00E94AE040E94B304FE
S11304602FEF87EA91E6215080409040E1F700C0E9
S1130470000081E090E09093010180930001C0337B
S113048061F51092DF011092DE0117BC0E947D031A
S11304900E94D50361E085E691E00E949D046AE034
S11304A080E00E94AE0461E08BE791E00E949D042D
S11304B06AE080E00E94AE040E94B3042FEF87EA52
S11304C091E6215080409040E1F700C0000081E0B7
S11304D090E09093010180930001C13369F501E03C
S11304E010E01093DF010093DE018CE387BD0E94CE
S11304F07D030E94D50361E08AE891E00E949D0497
S11305006AE080E00E94AE0461E08DE991E00E941F
S11305109D046AE080E00E94AE040E94B3042FEFC1
S113052087EA91E6215080409040E1F700C0000046
S11305301093010100930001C23379F582E090E049
S11305409093DF018093DE0188E787BD0E947D03DD
S11305500E94D50361E08AE891E00E949D046AE06C
S113056080E00E94AE0461E08DEA91E00E949D0467
S11305706AE080E00E94AE040E94B3042FEF87EA91
S113058091E6215080409040E1F700C0000081E0F6
S113059090E09093010180930001C33379F583E0E7
S11305A090E09093DF018093DE0184EB87BD0E948D
S11305B07D030E94D50361E08AE891E00E949D04D6
S11305C06AE080E00E94AE0461E08DEB91E00E945D
S11305D09D046AE080E00E94AE040E94B3042FEF01
S11305E087EA91E6215080409040E1F700C0000086
S11305F081E090E09093010180930001C43379F588
S113060084E090E09093DF018093DE0180EF87BD6A
S11306100E947D030E94D50361E08AE891E00E9474
S11306209D046AE080E00E94AE0461E08DEC91E0FC
S11306300E949D046AE080E00E94AE040E94B3041C
S11306402FEF87EA91E6215080409040E1F700C007
S1130650000081E090E090930101809300018C2FD1
S11306600E944E01FF91EF91CF91BF91AF919F9165
S11306708F917F916F915F914F913F912F911F9136
S11306800F910F900FBE0F901F90189595B19D7FFD
S113069095B9662329F095B1986095B990E01FC08B
S11306A095B1977F95B9FACF47E050E0491B5109BE
S11306B0282F30E002C0359527954A95E2F720FFB0
S11306C004C025B1206125B903C025B12F7E25B909
S11306D025B1206225B925B12F7D25B99F5F9830BA
S11306E018F385B1826085B9089560E00E944603DD
S11306F0089561E00E9446030895CF93DF9384B187
S1130700826084B984B1846084B984B1886084B916
S113071084B1806184B984B1806284B985B1846014
S113072085B985B1826085B983EC99E00197F1F7C9
S113073000C0000085B18B7F85B98BE594E40197F7
S1130740F1F700C0000085B1846085B985B18D7F63
S113075085B981E20E94750383E10E94750386E0F6
S11307600E94750382EC0E94750380E20E94750367
S113077089E00E94750380E80E94750380E40E946A
S11307807503C0E0D0E004C080E00E9479032196A4
S1130790C83F91E0D907C0F388E00E9475038CE05C
S11307A00E947503DF91CF91089580E80E9475033C
S11307B080E40E9475031092D8031092D90380E05C
S11307C090E005C0FC01E052FE4F10820196883F84
S11307D021E09207B8F30895262F269526952695AD
S11307E090E034E5239F800D911D1124442379F07A
S11307F0677021E030E002C0220F331F6A95E2F7F0
S1130800FC01E052FE4F8081282B208308956770FD
S113081021E030E002C0220F331F6A95E2F7FC01A9
S1130820E052FE4F20958081282320830895EF9283
S1130830FF920F931F93CF93DF93E82EF62E00E0E1
S113084045C02E2D30E020523109802F6F2D0E949B
S1130850CC04F901EE0FFF1FEE0FFF1FE20FF31F91
S1130860E80FF11DE859FF4FE491812F0E94CC0459
S1130870F0E002C0F595E7958A95E2F7E0FF0AC03B
S11308806091D9038091D803610F41E0800F0E94E9
S1130890EC0309C06091D9038091D803610F40E053
S11308A0800F0E94EC031F5F01C010E0212F30E095
S11308B0CE01880F991F880F991F880F991F8C1BD1
S11308C09D0B281739070CF4BCCF0F5F202F30E0A5
S11308D0CF2DD0E0CE01880F991F880F991F8C0F60
S11308E09D1F281739070CF3E8EDF3E08F2D880FCF
S11308F0880F8F0D9081890F8F5F8083843570F00E
S11309001092D803E9EDF3E08F2D880F880F880F3C
S1130910982F9F198081890F8F5F80838091D903DD
S1130920803320F01092D8031092D903DF91CF9135
S11309301F910F91FF90EF9008951F93CF93DF9332
S1130940EC01162F04C02196612F0E9417048881A0
S11309508111F9CFDF91CF911F9108958093D8032E
S11309606093D9030895CF93DF9380E80E947503C1
S113097080E40E947503C0E0D0E007C0FE01E052AD
S1130980FE4F80810E9479032196C83F81E0D807F9
S1130990A8F3DF91CF910895991B79E004C0991FC2
S11309A0961708F0961B881F7A95C9F780950895C5
S10709B0F894FFCFE5
S11309B401006D696E68612063617361002A2D2DE5
S11309C42D2D2D2D2D2D2D2D2D2D2A004C2E207326
S11309D4616C613A004C2E2071756172746F3A0037
S11309E4636F7274696E613A00416C61726D650083
S11309F46C616D702E73616C613A6C6967616461DA
S1130A04006C616D702E73616C613A6465736C691A
S1130A1467616461006C616D702E71756172746FCD
S1130A243A6465736C696761646100506F726365ED
S1130A346E746167656D3A3025006C616D702E715A
S1130A44756172746F3A6C696761646100506F72A6
S1130A5463656E746167656D3A32352500506F7253
S1130A6463656E746167656D3A35302500506F7245
S1130A7463656E746167656D3A37352500506F722E
S1110A8463656E746167656D3A31303025002C
S9030000FC
