:100000000C9434000C9428010C944F010C94510072
:100010000C9451000C9451000C9451000C9451001C
:100020000C9451000C9451000C9451000C9451000C
:100030000C9451000C9451000C9451000C945100FC
:100040000C9451000C9451000C9451000C945100EC
:100050000C9451000C9451000C9451000C945100DC
:100060000C9451000C94510011241FBECFEFD8E026
:10007000DEBFCDBF11E0A0E0B1E0E6E0F5E002C0F8
:1000800005900D92AC30B107D9F721E0ACE0B1E0BA
:1000900001C01D92AE30B207E1F70E9453000C94EC
:1000A00081020C940000CF93DF93CDB7DEB72E977B
:1000B0000FB6F894DEBF0FBECDBF8AE290E0FC0120
:1000C00010828BE290E02FEFFC01208387E290E02A
:1000D0002FEFFC01208384E290E02FEFFC012083CE
:1000E00089E690E02AE0FC0120838DE390E023E0A4
:1000F000FC012083789488E290E020910001FC01CB
:10010000208380910A0190910B01892BD1F385E224
:1001100090E020910C01222F30E020503F4FF90158
:100120002081FC01208380910C018F5F80930C0162
:1001300080E090E0AAE7B4E489839A83AB83BC8330
:1001400020E030E04AE755E469817A818B819C8127
:100150000E94EC01DC01CB018D839E83AF83B887C5
:1001600020E030E040E85FE36D817E818F819885FB
:100170000E94660188232CF481E090E09A878987A9
:100180003FC020E03FEF4FE757E46D817E818F81D4
:1001900098850E94E70118164CF520E030E040E217
:1001A00051E469817A818B819C810E94EC01DC01A0
:1001B000CB01BC01CD010E946B01DC01CB019A8710
:1001C00089870FC080E991E09C878B878B859C8510
:1001D0000197F1F79C878B8789859A8501979A8784
:1001E000898789859A85892B69F714C06D817E81FD
:1001F0008F8198850E946B01DC01CB019A878987EA
:1002000089859A859E878D878D859E850197F1F7D3
:100210009E878D8780910C018A3069F480910D0151
:100220008F5F80930D0180910D018A3011F410923F
:100230000D0110920C0188E290E020910D01222F17
:1002400030E020503F4FF9012081FC01208359CF3D
:100250001F920F9200905F000F9211242F938F93A3
:100260009F93CF93DF93CDB7DEB780910A01909132
:100270000B0121E0892B09F020E0822F90E0909380
:100280000B0180930A010000DF91CF919F918F9124
:100290002F910F9000925F000F901F9018951F9262
:1002A0000F9200905F000F921124CF93DF93CDB790
:1002B000DEB710920C0110920D010000DF91CF917A
:1002C0000F9000925F000F901F9018950E949A0166
:1002D00008F481E008950E94C60188F09F5798F0C5
:1002E000B92F9927B751B0F0E1F0660F771F881F3B
:1002F000991F1AF0BA95C9F714C0B13091F00E9455
:10030000E001B1E008950C94E001672F782F882771
:10031000B85F39F0B93FCCF3869577956795B3957B
:10032000D9F73EF490958095709561957F4F8F4FEA
:100330009F4F0895990F0008550FAA0BE0E8FEEFB4
:1003400016161706E807F907C0F012161306E40799
:10035000F50798F0621B730B840B950B39F40A2692
:1003600061F0232B242B252B21F408950A2609F470
:10037000A140A6958FEF811D811D089557FD9058CE
:10038000440F551F59F05F3F71F04795880F97FB59
:10039000991F61F09F3F79F0879508951216130613
:1003A0001406551FF2CF4695F1DF08C01616170642
:1003B0001806991FF1CF8695710561050894089577
:1003C000E894BB2766277727CB0197F908950E9409
:1003D0009A0108F48FEF08950E94FF010C947002B7
:1003E0000E94620238F00E94690220F0952311F009
:1003F0000C9459020C945F0211240C94E1010E94A8
:10040000BE0170F3959FC1F3950F50E0551F629F99
:10041000F001729FBB27F00DB11D639FAA27F00D5D
:10042000B11DAA1F649F6627B00DA11D661F829F84
:100430002227B00DA11D621F739FB00DA11D621F69
:10044000839FA00D611D221F749F3327A00D611D86
:10045000231F849F600D211D822F762F6A2F112468
:100460009F5750409AF0F1F088234AF0EE0FFF1F9B
:10047000BB1F661F771F881F91505040A9F79E3FF2
:10048000510580F00C9459020C94E1015F3FE4F3B4
:10049000983ED4F3869577956795B795F795E79548
:1004A0009F5FC1F7FE2B880F911D9695879597F951
:1004B000089597F99F6780E870E060E008959FEFE6
:1004C00080EC089500240A941616170618060906EB
:1004D000089500240A9412161306140605060895BA
:1004E000092E0394000C11F4882352F0BB0F40F442
:1004F000BF2B11F460FF04C06F5F7F4F8F4F9F4F82
:060500000895F894FFCFFE
:0C0506007E306D79335B5F707F7B0100FD
:00000001FF
