S01600004163656E64656E646F5F4C4544532E7372656306
S11300000C9434000C943E000C943E000C943E007E
S11300100C943E000C943E000C943E000C943E0064
S11300200C943E000C943E000C943E000C943E0054
S11300300C943E000C943E000C943E000C943E0044
S11300400C943E000C943E000C943E000C943E0034
S11300500C943E000C943E000C943E000C943E0024
S11300600C943E000C943E0011241FBECFEFD8E048
S1130070DEBFCDBF0E9440000C947B010C940000B5
S11300808FE18AB98FEF8BB981E090E04F990CC072
S11300904F9BFECF2FEF31EE44E0215030404040E3
S11300A0E1F700C000000196843091050CF019C1FD
S11300B02FEF31EE44E0215030404040E1F700C0E2
S11300C000008230910509F44FC08330910509F492
S11300D08FC081309105D1F6589B3EC08FEF91EED1
S11300E024E0815090402040E1F700C000005C987B
S11300F03FEF41EE84E0315040408040E1F700C0E2
S113010000005B989FEF21EE34E091502040304096
S1130110E1F700C000005A984FEF81EE94E041509F
S113012080409040E1F700C0000059982FEF31EE75
S113013044E0215030404040E1F700C000005898AE
S11301408FEF91EE24E0815090402040E1F700C011
S1130150000081E090E09ACF5C9A5B9A5A9A599A8F
S1130160589A81E090E092CF589B3CC03FEF41EE1B
S113017024E0315040402040E1F700C0000058988E
S11301803FEF41EE24E0315040402040E1F700C011
S1130190000059983FEF41EE24E0315040402040A8
S11301A0E1F700C000005A983FEF41EE24E03150DF
S11301B040402040E1F700C000005B983FEF41EE73
S11301C024E0315040402040E1F700C000005C983A
S11301D03FEF41EE24E0315040402040E1F700C0C1
S11301E0000054CF589A599A5A9A5B9A5C9A4ECF07
S11301F0589B4CCF58983FEF41EE24E0315040409B
S11302002040E1F700C0000059983FEF41EE24E0A0
S1130210315040402040E1F700C000005A983FEFC1
S113022041EE24E0315040402040E1F700C000009E
S11302305B983FEF41EE24E0315040402040E1F72D
S113024000C000005C983FEF41EE24E03150404094
S11302502040E1F700C00000589A599A5A9A5B9AD4
S11302603FEF43EC29E0315040402040E1F700C02B
S113027000005C983FEF41EE24E0315040402040C4
S1130280E1F700C000005B983FEF41EE24E03150FD
S113029040402040E1F700C000005A983FEF41EE93
S11302A024E0315040402040E1F700C0000059985C
S11302B03FEF41EE24E0315040402040E1F700C0E0
S11302C0000058983FEF41EE24E031504040204078
S11302D0E1F700C000005C9A5B9A5A9A599A589ABE
S11302E0D5CE3FEF41EE84E0315040408040E1F70D
S10D02F000C00000F1CEF894FFCF27
S9030000FC
