:100000000C9434000C94B4000C941B010C9451001B
:100010000C9451000C9451000C9451000C9451001C
:100020000C9451000C9451000C9451000C9451000C
:100030000C9451000C9451000C9451000C945100FC
:100040000C9451000C9451000C9451000C945100EC
:100050000C9451000C9451000C9451000C945100DC
:100060000C9451000C94510011241FBECFEFD8E026
:10007000DEBFCDBF11E0A0E0B1E0E6EAF5E002C0EE
:1000800005900D92AA30B107D9F721E0AAE0B1E0BE
:1000900001C01D92AC30B207E1F70E9453000C94EE
:1000A000D1020C940000CF93DF93CDB7DEB78BE283
:1000B00090E02FEFFC01208387E290E02FEFFC011E
:1000C000208384E290E02FEFFC0120838AE290E01D
:1000D00023EFFC01208384E490E023EAFC012083E9
:1000E00085E490E025E0FC01208387E490E0FC01BA
:1000F000108289E690E02AE0FC0120838DE390E005
:1001000023E0FC012083789485E290E020910001B7
:10011000FC01208388E290E020910001FC01208313
:1001200025E230E080910A0190910B014AE050E015
:10013000BA010E94A90280509F4FFC018081F90101
:10014000808328E230E080910A0190910B014AE01F
:1001500050E0BA010E94A902CB0180509F4FFC01E0
:100160008081F9018083DCCF1F920F9200905F00A5
:100170000F9211240F931F932F933F934F935F93ED
:100180006F937F938F939F93AF93BF93EF93FF935F
:10019000CF93DF93CDB7DEB780910A0190910B0129
:1001A000059690930B0180930A0180910A0190912A
:1001B0000B018436910534F083E690E090930B01B7
:1001C00080930A0107E410E080910A0190910B01ED
:1001D000092E000CAA0BBB0BBC01CD010E94B00183
:1001E000DC01CB0123E333E343E250E4BC01CD0166
:1001F0000E941402DC01CB01BC01CD010E947F01F1
:10020000DC01CB01F80180830000DF91CF91FF91E9
:10021000EF91BF91AF919F918F917F916F915F917E
:100220004F913F912F911F910F910F9000925F007E
:100230000F901F9018951F920F9200905F000F92E1
:1002400011240F931F932F933F934F935F936F93BB
:100250007F938F939F93AF93BF93EF93FF93CF932E
:10026000DF93CDB7DEB780910A0190910B0105971E
:1002700090930B0180930A0180910A0190910B01E8
:10028000992324F410920B0110920A0107E410E064
:1002900080910A0190910B01092E000CAA0BBB0B57
:1002A000BC01CD010E94B001DC01CB0123E333E3AB
:1002B00043E250E4BC01CD010E941402DC01CB01F9
:1002C000BC01CD010E947F01DC01CB01F8018083DC
:1002D0000000DF91CF91FF91EF91BF91AF919F917E
:1002E0008F917F916F915F914F913F912F911F91CE
:1002F0000F910F9000925F000F901F9018950E9431
:10030000F30188F09F5798F0B92F9927B751B0F0B3
:10031000E1F0660F771F881F991F1AF0BA95C9F789
:1003200014C0B13091F00E940D02B1E008950C9418
:100330000D02672F782F8827B85F39F0B93FCCF3CB
:10034000869577956795B395D9F73EF49095809506
:10035000709561957F4F8F4F9F4F0895E89409C026
:1003600097FB3EF490958095709561957F4F8F4FE8
:100370009F4F9923A9F0F92F96E9BB279395F695FE
:10038000879577956795B795F111F8CFFAF4BB0F7C
:1003900011F460FF1BC06F5F7F4F8F4F9F4F16C0E0
:1003A000882311F096E911C0772321F09EE8872F6A
:1003B000762F05C0662371F096E8862F70E060E026
:1003C0002AF09A95660F771F881FDAF7880F96959F
:1003D000879597F9089557FD9058440F551F59F088
:1003E0005F3F71F04795880F97FB991F61F09F3F22
:1003F00079F087950895121613061406551FF2CF4B
:100400004695F1DF08C0161617061806991FF1CF9A
:1004100086957105610508940895E894BB276627C1
:100420007727CB0197F908950E9427020C94980230
:100430000E948A0238F00E94910220F0952311F068
:100440000C9481020C94870211240C940E020E94D9
:10045000EB0170F3959FC1F3950F50E0551F629F1C
:10046000F001729FBB27F00DB11D639FAA27F00D0D
:10047000B11DAA1F649F6627B00DA11D661F829F34
:100480002227B00DA11D621F739FB00DA11D621F19
:10049000839FA00D611D221F749F3327A00D611D36
:1004A000231F849F600D211D822F762F6A2F112418
:1004B0009F5750409AF0F1F088234AF0EE0FFF1F4B
:1004C000BB1F661F771F881F91505040A9F79E3FA2
:1004D000510580F00C9481020C940E025F3FE4F30E
:1004E000983ED4F3869577956795B795F795E795F8
:1004F0009F5FC1F7FE2B880F911D9695879597F901
:10050000089597F99F6780E870E060E008959FEF95
:1005100080EC089500240A9416161706180609069A
:10052000089500240A941216130614060506089569
:10053000092E0394000C11F4882352F0BB0F40F4F1
:10054000BF2B11F460FF04C06F5F7F4F8F4F9F4F31
:10055000089597FB072E16F4009407D077FD09D075
:100560000E94BD0207FC05D03EF4909581959F4FF7
:100570000895709561957F4F0895AA1BBB1B51E1AB
:1005800007C0AA1FBB1FA617B70710F0A61BB70B03
:10059000881F991F5A95A9F780959095BC01CD01A8
:0605A0000895F894FFCF5E
:0A05A6007E306D79335B5F707F7B60
:00000001FF
