S013000074656D70657261747572612E7372656367
S11300000C9424010C9441010C9441010C94410181
S11300100C9441010C9441010C9441010C94410154
S11300200C9441010C9441010C9441010C94410144
S11300300C9441010C9441010C9441010C94410134
S11300400C9441010C9441010C9441010C94410124
S11300500C9441010C9443010C9441010C94410112
S11300600C9441010C944101000000000000005F69
S113007000000007000700147F147F14242A7F2A3D
S11300801223130864623649552250000503000008
S1130090001C2241000041221C0014083E081408E0
S11300A0083E0808005030000008080808080060EE
S11300B060000020100804023E5149453E00427F82
S11300C0400042615149462141454B311814127F89
S11300D01027454545393C4A494930017109050312
S11300E03649494936064949291E0036360000007A
S11300F0563600000814224100141414141400414C
S11301002214080201510906324979413E7E111137
S1130110117E7F494949363E414141227F41412276
S11301201C7F494949417F090909013E4149497AEE
S11301307F0808087F00417F41002040413F017F44
S1130140081422417F404040407F020C027F7F041C
S113015008107F3E4141413E7F090909063E415155
S1130160215E7F09192946464949493101017F0128
S1130170013F4040403F1F2040201F3F4038403F48
S11301806314081463070870080761514945430064
S11301907F41410002040810200041417F00040215
S11301A00102044040404040000102040020545435
S11301B054787F48444438384444442038444448BC
S11301C07F3854545418087E0901020C5252523E8E
S11301D07F0804047800447D40002040443D007FB3
S11301E01028440000417F40007C041804787C08F7
S11301F004047838444444387C141414080814144F
S1130200187C7C080404084854545420043F444097
S1130210203C4040207C1C2040201C3C4030403C82
S113022044281028440C5050503C4464544C44001E
S11302300836410000007F00000041360800100825
S1130240081008000000000011241FBECFEFD8E002
S1130250DEBFCDBF11E0A0E0B1E0EAEAF0E102C008
S113026005900D92A231B107D9F723E0A2E1B1E0E4
S113027001C01D92A332B207E1F70E9467010C94FA
S113028053080C9400001F920F9200905F000F928D
S113029011248F939F93EF93FF93CF93DF93CDB765
S11302A0DEB788E790E0FC0180819181909313018F
S11302B0809312010000DF91CF91FF91EF919F9104
S11302C08F910F9000925F000F901F901895CF931D
S11302D0DF93CDB7DEB72E970FB6F894DEBF0FBE0F
S11302E0CDBF84E290E02FEFFC01208387E290E011
S11302F020E2FC01208388E290E0FC0110828CE77C
S113030090E020ECFC0120838AE790E02FEEFC01D2
S113031020838BE790E0FC0110828EE790E02EE3CF
S1130320FC01208378940E946303809112019091D0
S11303301301CC01A0E0B0E0BC01CD010E94140780
S1130340DC01CB0120E030EC4FE754E4BC01CD01EB
S11303500E947306DC01CB0120E030E048EC52E45B
S1130360BC01CD010E94CB07DC01CB0180931F03AC
S113037090932003A0932103B09322030E94E304EB
S113038080911F0390912003A0912103B091220337
S1130390BC01CD010E94E506DC01CB016AE173E0FA
S11303A00E947A0261E080E091E00E9416066AE011
S11303B080E00E94390661E08AE193E00E9416061B
S11303C061E087E091E00E94160664E180E00E940B
S11303D039060E944C0680E090E0AAE7B4E48983E1
S11303E09A83AB83BC8320E030E04AE755E469811B
S11303F07A818B819C810E94CB07DC01CB018D83A8
S11304009E83AF83B88720E030E040E85FE36D81EE
S11304107E818F8198850E946E0688232CF481E06A
S113042090E09A8789873FC020E03FEF4FE757E489
S11304306D817E818F8198850E94C60718164CF5C0
S113044020E030E040E251E469817A818B819C8133
S11304500E94CB07DC01CB01BC01CD010E94E50663
S1130460DC01CB019A8789870FC080E991E09C87E2
S11304708B878B859C850197F1F79C878B87898572
S11304809A8501979A87898789859A85892B69F73F
S113049014C06D817E818F8198850E94E506DC0100
S11304A0CB019A87898789859A859E878D878D85D3
S11304B09E850197F1F79E878D8780911F03909108
S11304C02003A0912103B091220320E030E040EA10
S11304D052E4BC01CD010E946E0618162CF088E28D
S11304E090E0FC01108221CF88E290E020E2FC0140
S11304F020831BCFCF93DF9300D000D000D0CDB7A3
S1130500DEB79C838B837E836D8383E08A838A81B9
S1130510898337C08981082E000C990B2D813E8177
S1130520F901E80FF91F4B815C819A01ADECBCEC39
S11305300E944408969587959695879596958795F4
S1130540880F991F9C01220F331F220F331F820F24
S1130550931F9A01281B390BC901805D80838B810D
S11305609C819C01ADECBCEC0E9444089695879557
S113057096958795969587959C838B8389818150E1
S113058089838981882334F6000026960FB6F8946F
S1130590DEBF0FBECDBFDF91CF9108951F93CF93E0
S11305A0DF9300D0CDB7DEB789836A8385E290E01C
S11305B025E230E0F90120812D7FFC0120838A812E
S11305C0882351F085E290E025E230E0F9012081B2
S11305D02860FC01208309C085E290E025E230E038
S11305E0F9012081277FFC01208310E03CC0898130
S11305F0882F90E0212F30E047E050E0BA01621BE1
S1130600730B9B0102C0959587952A95E2F781703B
S11306109927892B51F085E290E025E230E0F90139
S113062020812061FC01208309C085E290E025E25D
S113063030E0F90120812F7EFC01208385E290E0E7
S113064025E230E0F90120812062FC01208385E26B
S113065090E025E230E0F90120812F7DFC01208328
S1130660812F11E0180F183010F285E290E025E296
S113067030E0F90120812260FC01208300000F900A
S11306800F90DF91CF911F910895CF93DF931F9225
S1130690CDB7DEB7898360E089810E94CE02000075
S11306A00F90DF91CF910895CF93DF931F92CDB731
S11306B0DEB7898361E089810E94CE0200000F9039
S11306C0DF91CF9108950F931F93CF93DF93CDB70D
S11306D0DEB76C970FB6F894DEBF0FBECDBF84E2D1
S11306E090E024E230E0F90120812260FC012083C3
S11306F084E290E024E230E0F90120812460FC01EE
S1130700208384E290E024E230E0F9012081286033
S1130710FC01208384E290E024E230E0F9012081AE
S11307202061FC01208384E290E024E230E0F901BE
S113073020812062FC01208385E290E025E230E004
S1130740F90120812460FC01208385E290E025E208
S113075030E0F90120812260FC01208380E090E0F8
S1130760A0E2B1E489839A83AB83BC8320E030E0C8
S11307704AE753E469817A818B819C810E94CB078B
S1130780DC01CB018B8B9C8BAD8BBE8B20E030E0EE
S113079040E85FE36B897C898D899E890E946E069F
S11307A088232CF481E090E0988F8F8B3FC020E069
S11307B03FEF4FE757E46B897C898D899E890E94BE
S11307C0C60718164CF520E030E040E251E4698198
S11307D07A818B819C810E94CB07DC01CB01BC0117
S11307E0CD010E94E506DC01CB01988F8F8B0FC0F1
S11307F089E190E09A8F898F898D9A8D0197F1F71D
S11308009A8F898F8F89988D0197988F8F8B8F8975
S1130810988D892B69F714C06B897C898D899E8991
S11308200E94E506DC01CB01988F8F8B8F89988D10
S11308309C8F8B8F8B8D9C8D0197F1F79C8F8B8F69
S113084085E290E025E230E0F90120812B7FFC0174
S1130850208380E090E0ACE8B2E48D839E83AF8394
S1130860B88720E030E04AE753E46D817E818F81D0
S113087098850E94CB07DC01CB0189879A87AB87D7
S1130880BC8720E030E040E85FE369857A858B85AA
S11308909C850E946E0688232CF481E090E09E875C
S11308A08D873FC020E03FEF4FE757E469857A85A5
S11308B08B859C850E94C60718164CF520E030E015
S11308C040E251E46D817E818F8198850E94CB073F
S11308D0DC01CB01BC01CD010E94E506DC01CB01AA
S11308E09E878D870FC089E190E0988B8F878F85D5
S11308F098890197F1F7988B8F878D859E8501974D
S11309009E878D878D859E85892B69F714C069859F
S11309107A858B859C850E94E506DC01CB019E8748
S11309208D878D859E859A8B898B89899A89019774
S1130930F1F79A8B898B85E290E025E230E0F901AA
S113094020812460FC01208385E290E025E230E0F0
S1130950F90120812D7FFC01208381E20E9445035F
S113096083E10E94450386E00E94450382EC0E94D5
S1130970450380E20E94450389E00E94450380E824
S11309800E94450380E40E94450300E010E005C096
S113099080E00E9454030F5F1F4F083FF1E01F07E0
S11309A0B8F388E00E9445038CE00E9445030000F0
S11309B06C960FB6F894DEBF0FBECDBFDF91CF911A
S11309C01F910F9108950F931F93CF93DF93CDB78A
S11309D0DEB780E80E94450380E40E94450310923C
S11309E00C0310920D0300E010E007C0C8018C5EF8
S11309F09E4FFC0110820F5F1F4F083FF1E01F075D
S1130A00A8F30000DF91CF911F910F910895CF9328
S1130A10DF9300D000D01F92CDB7DEB78B836C83F9
S1130A204D838C81869586958695882F90E044E544
S1130A30489F9001499F300D11248B81882F90E0AD
S1130A40820F931F8C5E9E4F9A8389838D818823A6
S1130A50C9F089819A81FC018081482F8C81882F7B
S1130A6090E09C012770332781E090E002C0880F5A
S1130A70991F2A95E2F7842B282F89819A81FC01FA
S1130A80208319C089819A81FC018081482F8C813F
S1130A90882F90E09C012770332781E090E002C00A
S1130AA0880F991F2A95E2F780958423282F89813E
S1130AB09A81FC01208300000F900F900F900F90FB
S1130AC00F90DF91CF9108950F931F93CF93DF93EE
S1130AD000D000D01F92CDB7DEB78C836D8310E0B9
S1130AE065C000E04EC08C81882F90E09C012052AC
S1130AF031099D81812F692F0E943808482F50E0C9
S1130B00C901880F991F880F991F820F931F840FA3
S1130B10951F88599F4F9A83898389819A81FC0103
S1130B2084918B838B81282F30E09D81802F692FC6
S1130B300E943808882F90E0A90102C05595479576
S1130B408A95E2F7CA0181709927892B61F0809117
S1130B500D03982F900F80910C03810F41E0692FB2
S1130B600E9407050BC080910D03982F900F809170
S1130B700C03810F40E0692F0E940705802F01E0DC
S1130B80080F402F50E08D81282F30E0C901880FD5
S1130B90991F880F991F880F991F821B930B481761
S1130BA059070CF4A0CF812F11E0180F412F50E00A
S1130BB08D81282F30E0C901880F991F880F991F54
S1130BC0820F931F481759070CF48BCF20910C0305
S1130BD09D81892F880F880F890F820F8F5F8093E3
S1130BE00C0380910C03843570F010920C03209157
S1130BF00D039D81892F880F880F880F891B820F11
S1130C008F5F80930D0380910D03803320F0109249
S1130C100C0310920D0300000F900F900F900F9093
S1130C200F90DF91CF911F910F910895CF93DF9390
S1130C3000D01F92CDB7DEB79A8389836B830CC033
S1130C4089819A819C012F5F3F4F3A832983FC015C
S1130C5080816B810E94640589819A81FC01808175
S1130C60882371F700000F900F900F90DF91CF91C0
S1130C700895CF93DF9300D0CDB7DEB789836A831D
S1130C80898180930C038A8180930D0300000F9067
S1130C900F90DF91CF9108950F931F93CF93DF931C
S1130CA0CDB7DEB780E80E94450380E40E94450387
S1130CB000E010E009C0C8018C5E9E4FFC018081F9
S1130CC00E9454030F5F1F4F083FF1E01F0798F382
S1130CD00000DF91CF911F910F9108950E94510759
S1130CE008F481E008950E9487060C948C070E9402
S1130CF0850758F00E947E0740F029F45F3F29F0F1
S1130D000C94750751110C94C0070C947B070E9436
S1130D109D0768F39923B1F3552391F3951B550B64
S1130D20BB27AA2762177307840738F09F5F5F4FBA
S1130D30220F331F441FAA1FA9F335D00E2E3AF0F9
S1130D40E0E832D091505040E695001CCAF72BD011
S1130D50FE2F29D0660F771F881FBB1F2617370762
S1130D604807AB07B0E809F0BB0B802DBF01FF2794
S1130D7093585F4F3AF09E3F510578F00C947507F5
S1130D800C94C0075F3FE4F3983ED4F386957795BF
S1130D906795B795F7959F5FC9F7880F911D96954D
S1130DA0879597F90895E1E0660F771F881FBB1FA9
S1130DB0621773078407BA0720F0621B730B840B56
S1130DC0BA0BEE1F88F7E09508950E94A50788F0F6
S1130DD09F5798F0B92F9927B751B0F0E1F0660FFB
S1130DE0771F881F991F1AF0BA95C9F714C0B1303C
S1130DF091F00E94BF07B1E008950C94BF07672FDC
S1130E00782F8827B85F39F0B93FCCF3869577956A
S1130E106795B395D9F73EF4909580957095619553
S1130E207F4F8F4F9F4F0895E89409C097FB3EF47E
S1130E3090958095709561957F4F8F4F9F4F992323
S1130E40A9F0F92F96E9BB279395F69587957795A1
S1130E506795B795F111F8CFFAF4BB0F11F460FF61
S1130E601BC06F5F7F4F8F4F9F4F16C0882311F0B9
S1130E7096E911C0772321F09EE8872F762F05C0CD
S1130E80662371F096E8862F70E060E02AF09A9568
S1130E90660F771F881FDAF7880F9695879597F95D
S1130EA00895990F0008550FAA0BE0E8FEEF1616F7
S1130EB01706E807F907C0F012161306E407F5074A
S1130EC098F0621B730B840B950B39F40A2661F0BE
S1130ED0232B242B252B21F408950A2609F4A14061
S1130EE0A6958FEF811D811D089597F99F6780E86E
S1130EF070E060E008959FEF80EC089500240A9468
S1130F001616170618060906089500240A941216E0
S1130F101306140605060895092E0394000C11F413
S1130F20882352F0BB0F40F4BF2B11F460FF04C0C0
S1130F306F5F7F4F8F4F9F4F089557FD9058440F19
S1130F40551F59F05F3F71F04795880F97FB991F24
S1130F5061F09F3F79F087950895121613061406E1
S1130F60551FF2CF4695F1DF08C01616170618066E
S1130F70991FF1CF86957105610508940895E89449
S1130F80BB2766277727CB0197F908950E9451075D
S1130F9008F48FEF08950E94DE070C948C070E94DA
S1130FA07E0738F00E94850720F0952311F00C94F9
S1130FB075070C947B0711240C94C0070E949D07AD
S1130FC070F3959FC1F3950F50E0551F629FF00198
S1130FD0729FBB27F00DB11D639FAA27F00DB11DB1
S1130FE0AA1F649F6627B00DA11D661F829F22273A
S1130FF0B00DA11D621F739FB00DA11D621F839FC1
S1131000A00D611D221F749F3327A00D611D231F96
S1131010849F600D211D822F762F6A2F11249F57E4
S113102050409AF0F1F088234AF0EE0FFF1FBB1FE7
S1131030661F771F881F91505040A9F79E3F5105A6
S113104080F00C9475070C94C0075F3FE4F3983E5E
S1131050D4F3869577956795B795F795E7959F5F50
S1131060C1F7FE2B880F911D9695879597F90895E2
S1131070991B79E004C0991F961708F0961B881FE6
S11310807A95C9F780950895A29FB001B39FC001D6
S1131090A39F700D811D1124911DB29F700D811DA0
S10D10A01124911D0895F894FFCF68
S11310AA54656D703A20002043656C73697573202A
S10510BA000030
S9030000FC
