:100000000C9434000C943E000C943E000C943E0082
:100010000C943E000C943E000C943E000C943E0068
:100020000C943E000C943E000C943E000C943E0058
:100030000C943E000C943E000C943E000C943E0048
:100040000C943E000C943E000C943E000C943E0038
:100050000C943E000C943E000C943E000C943E0028
:100060000C943E000C943E0011241FBECFEFD8E04C
:10007000DEBFCDBF0E944B000C9490020C94000098
:10008000009741F0EFE9FFE03197F1F700C0000081
:100090000197C1F708958FEF84B900E010E0D0E038
:1000A000C0E0E12CF12CD12CC12C04C00E2D1F2D51
:1000B000DD2DCC2D20E030E040E052E4602F712FA8
:1000C0008D2F9C2F0E94230220E030E048EC52E468
:1000D0000E940D014B015C012D9A0E947F01CB0112
:1000E0000E9440002D98A501940160E070E080E03E
:1000F00092E40E949B000E947F01CB010E9440007D
:1001000020E030E048EC52E4602F712F8D2F9C2FBF
:100110000E940801882354F620E030E040E85FE3C5
:10012000602F712F8D2F9C2F0E949C00062F172F60
:10013000D82FC92FBFCF5058BB27AA270E94B30082
:100140000C94E9010E94DB0138F00E94E20120F0EA
:1001500039F49F3F19F426F40C94D8010EF4E0957D
:10016000E7FB0C94D201E92F0E94FA0158F3BA1769
:10017000620773078407950720F079F4A6F50C94BD
:100180001C020EF4E0950B2EBA2FA02D0B01B90125
:1001900090010C01CA01A0011124FF27591B99F0FD
:1001A000593F50F4503E68F11A16F040A22F232F09
:1001B000342F4427585FF3CF469537952795A79559
:1001C000F0405395C9F77EF41F16BA0B620B730B00
:1001D000840BBAF09150A1F0FF0FBB1F661F771F71
:1001E000881FC2F70EC0BA0F621F731F841F48F426
:1001F000879577956795B795F7959E3F08F0B0CFAF
:100200009395880F08F09927EE0F97958795089595
:100210000E94AE0108F481E008950E9421010C942F
:10022000E9010E94E20158F00E94DB0140F029F44C
:100230005F3F29F00C94D20151110C941D020C94D3
:10024000D8010E94FA0168F39923B1F3552391F381
:10025000951B550BBB27AA2762177307840738F035
:100260009F5F5F4F220F331F441FAA1FA9F335D092
:100270000E2E3AF0E0E832D091505040E695001C46
:10028000CAF72BD0FE2F29D0660F771F881FBB1F00
:10029000261737074807AB07B0E809F0BB0B802DDE
:1002A000BF01FF2793585F4F3AF09E3F510578F00A
:1002B0000C94D2010C941D025F3FE4F3983ED4F3FA
:1002C000869577956795B795F7959F5FC9F7880FDE
:1002D000911D9695879597F90895E1E0660F771F30
:1002E000881FBB1F621773078407BA0720F0621BC1
:1002F000730B840BBA0BEE1F88F7E09508950E94EC
:10030000020288F09F5798F0B92F9927B751B0F0A3
:10031000E1F0660F771F881F991F1AF0BA95C9F789
:1003200014C0B13091F00E941C02B1E008950C9409
:100330001C02672F782F8827B85F39F0B93FCCF3BC
:10034000869577956795B395D9F73EF49095809506
:10035000709561957F4F8F4F9F4F0895990F0008BB
:10036000550FAA0BE0E8FEEF16161706E807F90787
:10037000C0F012161306E407F50798F0621B730B22
:10038000840B950B39F40A2661F0232B242B252BA3
:1003900021F408950A2609F4A140A6958FEF811D46
:1003A000811D089597F99F6780E870E060E00895E7
:1003B0009FEF80EC089500240A941616170618067D
:1003C0000906089500240A94121613061406050659
:1003D0000895092E0394000C11F4882352F0BB0FEA
:1003E00040F4BF2B11F460FF04C06F5F7F4F8F4F4D
:1003F0009F4F089557FD9058440F551F59F05F3F88
:1004000071F04795880F97FB991F61F09F3F79F036
:1004100087950895121613061406551FF2CF4695B8
:10042000F1DF08C0161617061806991FF1CF86953A
:100430007105610508940895E894BB27662777271E
:10044000CB0197F908950E9436020C94E9010E94AD
:10045000DB0138F00E94E20120F0952311F00C94AA
:10046000D2010C94D80111240C941D020E94FA01AF
:1004700070F3959FC1F3950F50E0551F629FF001F7
:10048000729FBB27F00DB11D639FAA27F00DB11D10
:10049000AA1F649F6627B00DA11D661F829F222799
:1004A000B00DA11D621F739FB00DA11D621F839F20
:1004B000A00D611D221F749F3327A00D611D231FF6
:1004C000849F600D211D822F762F6A2F11249F5744
:1004D00050409AF0F1F088234AF0EE0FFF1FBB1F47
:1004E000661F771F881F91505040A9F79E3F510506
:1004F00080F00C94D2010C941D025F3FE4F3983E0F
:10050000D4F3869577956795B795F795E7959F5FAF
:10051000C1F7FE2B880F911D9695879597F9089541
:04052000F894FFCF7D
:00000001FF
