S00B00004144432E7372656351
S11300000C9465010C9482010C9482010C9482017D
S11300100C9482010C9482010C9482010C94820150
S11300200C9482010C9482010C9482010C94820140
S11300300C9482010C9482010C9482010C94820130
S11300400C9482010C9482010C9482010C94820120
S11300500C9482010C9484010C9482010C9482010E
S11300600C9482010C94820108000000BE92244981
S1130070123EABAAAA2ABECDCCCC4C3E00000080D6
S1130080BEABAAAAAA3E00000000BF000000803F49
S11300900000000000084178D3BB4387D1133D1909
S11300A00E3CC3BD4282AD2B3E68EC8276BED98F36
S11300B0E1A93E4C80EFFFBE01C4FF7F3F0000007A
S11300C0000007634236B79BD8A71A39685618AEA2
S11300D0BAAB558C1D3CB7CC5763BD6DEDFD753E79
S11300E0F6177231BF000000803F000000000000DE
S11300F0005F00000007000700147F147F14242A07
S11301007F2A1223130864623649552250000503DE
S11301100000001C2241000041221C0014083E087B
S11301201408083E080800503000000808080808B1
S1130130006060000020100804023E5149453E0062
S1130140427F400042615149462141454B311814D8
S1130150127F1027454545393C4A49493001710908
S113016005033649494936064949291E00363600F1
S1130170000056360000081422410014141414140C
S113018000412214080201510906324979413E7E98
S11301901111117E7F494949363E414141227F4137
S11301A041221C7F494949417F090909013E4149CE
S11301B0497A7F0808087F00417F41002040413F81
S11301C0017F081422417F404040407F020C027F9F
S11301D07F0408107F3E4141413E7F090909063EE4
S11301E04151215E7F091929464649494931010196
S11301F07F01013F4040403F1F2040201F3F4038C7
S1130200403F6314081463070870080761514945A7
S113021043007F41410002040810200041417F0057
S11302200402010204404040404000010204002056
S1130230545454787F48444438384444442038441F
S113024044487F3854545418087E0901020C525211
S1130250523E7F0804047800447D40002040443D21
S1130260007F1028440000417F40007C041804787B
S11302707C0804047838444444387C141414080872
S11302801414187C7C080404084854545420043F73
S11302904440203C4040207C1C2040201C3C4030FA
S11302A0403C44281028440C5050503C4464544C66
S11302B044000836410000007F0000004136080079
S11302C01008081008000000000011241FBECFEF22
S11302D0D8E0DEBFCDBF11E0A0E0B1E0EAEDFFE081
S11302E002C005900D92AC30B107D9F723E0ACE021
S11302F0B1E001C01D92AB31B207E1F70E94FF01EA
S11303000C94EB070C9400001F920F920FB60F92FF
S113031011242F933F934F935F936F937F938F9306
S11303209F93AF93BF93EF93FF9380917800909145
S1130330790090930D0180930C019695879596957D
S11303408795815087BD60910C0170910D0180E00B
S113035090E00E94500520E030EC4FE754E40E9406
S1130360AF0420E030E048EC52E40E942E060E94E4
S1130370210570930D0160930C01FF91EF91BF91E2
S1130380AF919F918F917F916F915F914F913F9129
S11303902F910F900FBE0F901F901895AC01FB0189
S11303A080E380838183828333969A01ADECBCEC35
S11303B00E94DC07969587959695879596958795DF
S11303C09C01220F331F880F991F880F991F880FD4
S11303D0991F820F931F9A01281B390BC901805D55
S11303E082939A010E94DC07AC0156954795569575
S11303F047955695479541155105B9F608958FEFE0
S113040084B917B88EEF88B980E48AB980EC8093F8
S11304107C008FEE80937A0010927B008EE38093B1
S11304207E0083EA84BD85E085BD17BC78940E9474
S1130430E80260910C0170910D0180E090E00E944F
S1130440500520E030E040EA50E40E942E0620E00F
S113045030EC4FE754E40E94AF046B017C016093DD
S11304600C0370930D0380930E0390930F039B0171
S1130470AC0160E070E080EA90E40E9442049B01D9
S1130480AC0160E070E48CE196E40E94AF04A70143
S113049096010E942E0660930803709309038093CB
S11304A00A0390930B030E94E6056B017C0120E094
S11304B030E040E450E40E949B064B015C01209133
S11304C00401309105014091060150910701C701D3
S11304D0B6010E942E062091080130910901409135
S11304E00A0150910B010E9443046B017C0120918D
S11304F00001309101014091020150910301C501B5
S1130500B4010E942E069B01AC01C701B6010E94F2
S113051043049B01AC0160E070E080E89FE30E942B
S1130520AF046093100370931103809312039093AC
S1130530130320E030E848E853E40E944204609347
S11305401703709318038093190390931A030E945E
S1130550290364E173E080910C0190910D010E94E4
S1130560CE0163E084E193E00E94150463E085E238
S11305700E9467030E9428042FEF83ED90E321502B
S113058080409040E1F700C0000053CF29986623D3
S113059011F02B9A15C02B9813C0AC01022E02C087
S11305A0559547950A94E2F740FF02C02C9A01C082
S11305B02C982D9A2D982150310978F7299A08956D
S11305C027E030E090E0E9CF60E00E94C6020895A1
S11305D0CF93DF93219A229A239A249A259A2A9ACE
S11305E0299A83EC99E00197F1F700C000002A985A
S11305F08BE594E40197F1F700C000002A9A29984A
S113060081E20E94E40283E10E94E40286E00E9407
S1130610E40282EC0E94E40280E20E94E40289E0A7
S11306200E94E40280E80E94E40280E40E94E40262
S1130630C8EFD1E061E080E00E94C6022197D1F7C3
S113064088E00E94E4028CE00E94E402DF91CF91F2
S1130650089580E80E94E40280E40E94E40210927B
S1130660060310920703EEE0F1E086E093E01192B6
S1130670E817F907E1F70895262F2695269526957C
S113068090E034E5239F800D911D1124442379F0DB
S1130690FC01E25FFE4F677081E090E002C0880FCA
S11306A0991F6A95E2F79081892B80830895FC0154
S11306B0E25FFE4F677081E090E002C0880F991FEF
S11306C06A95E2F7809590818923808308955F92EB
S11306D06F927F928F929F92AF92BF92CF92DF924E
S11306E0EF92FF920F931F93CF93DF93562E262FF3
S11306F030E04901880C991C880C991C820E931EC9
S1130700181419040CF05DC08901000F111F000FAB
S1130710111F000F111F021B130B612CA82EB12CEB
S1130720C50180975C01AA0CBB1CAA0CBB1CA80EBB
S1130730B91E0F2EF7E0CF2EF3E0DF2EF02D0F2E93
S1130740F6E0EF2EF3E0FF2EF02D2DC0FE012491F4
S113075030E0872D652D0E94D00702C0359527957E
S11307608A95E2F720FF0AC0F6016081670DF70160
S1130770808141E0860D0E943C0309C0F60160813E
S1130780670DF701808140E0860D0E943C0373945D
S1130790872D90E080179107CCF26394862D90E02A
S11307A08815990574F410161106BCF7862D652D6D
S11307B00E94D007E501C80FD11DC651DF4F712C2F
S11307C0C5CF8091060391E0980F852D880F880F7F
S11307D0850D890F843518F4809306030EC010929A
S11307E00603E7E0F3E0808191E0980F852D880F00
S11307F0880F880F8519890F8083809107038033C0
S113080020F01092060310920703DF91CF911F91FD
S11308100F91FF90EF90DF90CF90BF90AF909F909B
S11308208F907F906F905F9008951F93CF93DF9385
S1130830EC018881882341F0162F2196612F0E94B4
S1130840670389918111FACFDF91CF911F910895A8
S11308500F931F93CF93DF9380E80E94E40280E418
S11308600E94E402CEE0D1E006E013E061E0899169
S11308700E94C602C017D107C9F7DF91CF911F911B
S11308800F9108955058BB27AA270E945A040C942C
S1130890A4050E94960538F00E949D0520F039F4C5
S11308A09F3F19F426F40C9493050EF4E095E7FBAE
S11308B00C948D05E92F0E94B50558F3BA17620709
S11308C073078407950720F079F4A6F50C94D705EF
S11308D00EF4E0950B2EBA2FA02D0B01B901900157
S11308E00C01CA01A0011124FF27591B99F0593F9B
S11308F050F4503E68F11A16F040A22F232F342FE3
S11309004427585FF3CF469537952795A795F04030
S11309105395C9F77EF41F16BA0B620B730B840B45
S1130920BAF09150A1F0FF0FBB1F661F771F881FFD
S1130930C2F70EC0BA0F621F731F841F48F4879555
S113094077956795B795F7959E3F08F0B0CF939547
S1130950880F08F09927EE0F9795879508950E94C0
S1130960C3040C94A4050E949D0558F00E949605AA
S113097040F029F45F3F29F00C948D0551110C943B
S1130980D8050C9493050E94B50568F39923B1F337
S1130990552391F3951B550BBB27AA2762177307A1
S11309A0840738F09F5F5F4F220F331F441FAA1F35
S11309B0A9F335D00E2E3AF0E0E832D091505040F1
S11309C0E695001CCAF72BD0FE2F29D0660F771F9F
S11309D0881FBB1F261737074807AB07B0E809F085
S11309E0BB0B802DBF01FF2793585F4F3AF09E3F0A
S11309F0510578F00C948D050C94D8055F3FE4F311
S1130A00983ED4F3869577956795B795F7959F5F4C
S1130A10C9F7880F911D9695879597F90895E1E098
S1130A20660F771F881FBB1F621773078407BA07F7
S1130A3020F0621B730B840BBA0BEE1F88F7E09552
S1130A4008950E94BD0588F09F5798F0B92F992703
S1130A50B751B0F0E1F0660F771F881F991F1AF0A5
S1130A60BA95C9F714C0B13091F00E94D705B1E02E
S1130A7008950C94D705672F782F8827B85F39F02D
S1130A80B93FCCF3869577956795B395D9F73EF43E
S1130A9090958095709561957F4F8F4F9F4F0895E6
S1130AA0E89409C097FB3EF4909580957095619504
S1130AB07F4F8F4F9F4F9923A9F0F92F96E9BB27BA
S1130AC09395F695879577956795B795F111F8CF36
S1130AD0FAF4BB0F11F460FF1BC06F5F7F4F8F4FA1
S1130AE09F4F16C0882311F096E911C0772321F097
S1130AF09EE8872F762F05C0662371F096E8862F2F
S1130B0070E060E02AF09A95660F771F881FDAF785
S1130B10880F9695879597F9089597F99F6780E8C8
S1130B2070E060E008959FEF80EC089500240A943B
S1130B301616170618060906089500240A941216B4
S1130B401306140605060895092E0394000C11F4E7
S1130B50882352F0BB0F40F4BF2B11F460FF04C094
S1130B606F5F7F4F8F4F9F4F089557FD9058440FED
S1130B70551F59F05F3F71F04795880F97FB991FF8
S1130B8061F09F3F79F087950895121613061406B5
S1130B90551FF2CF4695F1DF08C016161706180642
S1130BA0991FF1CF86957105610508940895E8941D
S1130BB0BB2766277727CB0197F9089516F00C9485
S1130BC025070C94930568940C948D050E94BD052B
S1130BD0A8F39923C1F3AEF3DF93CF931F930F933D
S1130BE0FF92C92FDD2788232AF02197660F771FEC
S1130BF0881FDAF720E030E040E85FEB9FE38839B4
S1130C0020F0803E38F021968F770E944304E8E676
S1130C10F0E004C00E944304E5E9F0E00E943307D9
S1130C208B01BE01EC01FB2E6F5771097595771F7F
S1130C30880B990B0E94520528E132E741E35FE3F8
S1130C400E944106AF2D9801AE01FF900F911F91B4
S1130C50CF91DF910E945A040C94A4050E9441068E
S1130C600C94A4050E94960538F00E949D0520F07E
S1130C70952311F00C948D050C94930511240C9478
S1130C80D8050E94B50570F3959FC1F3950F50E008
S1130C90551F629FF001729FBB27F00DB11D639F2A
S1130CA0AA27F00DB11DAA1F649F6627B00DA11DD0
S1130CB0661F829F2227B00DA11D621F739FB00D76
S1130CC0A11D621F839FA00D611D221F749F3327E6
S1130CD0A00D611D231F849F600D211D822F762F7F
S1130CE06A2F11249F5750409AF0F1F088234AF05C
S1130CF0EE0FFF1FBB1F661F771F881F91505040C8
S1130D00A9F79E3F510580F00C948D050C94D805ED
S1130D105F3FE4F3983ED4F3869577956795B7954E
S1130D20F795E7959F5FC1F7FE2B880F911D969568
S1130D30879597F90895FA01EE0FFF1F3096210564
S1130D403105A1F16115710561F48038BFE39B079A
S1130D5049F168949038810561F08038BFEF9B07B2
S1130D6041F099234AF5FF3FE1053105210519F1C9
S1130D70E8940894E795D901AA2329F4AB2FBE2F50
S1130D80F85FD0F310C0FF5F70F4A695E0F7F73971
S1130D9050F019F0FF3A38F49F779F930DD00F90DD
S1130DA007FC9058089546F00C94930560E070E0B9
S1130DB080E89FE308954FE79F775F934F933F93B6
S1130DC02F930E94E6052F913F914F915F910E94CE
S1130DD02E060C94F30629F416F00C948D050C944D
S1130DE0D7050C9493050E94BD05A8F39638A0F787
S1130DF007F80F92E8942BE33AEA48EB5FE70E9486
S1130E0044060F920F920F924DB75EB70F920E9455
S1130E109C07E2ECF0E00E9433074F915F91EF9161
S1130E20FF91E595EE1FFF1F49F0FE57E068442748
S1130E30EE0F441FFA95E1F74195550B0E946607A2
S1130E400F9007FE0C945A0708959F3F31F091507C
S1130E5020F4879577956795B795880F911D96959A
S1130E60879597F90895DF93CF931F930F93FF927C
S1130E70EF92DF927B018C01689406C0DA2EEF01B9
S1130E800E944106FE01E894A59125913591459172
S1130E905591A6F3EF010E945A04FE019701A8019F
S1130EA0DA9469F7DF90EF90FF900F911F91CF9143
S1130EB0DF9108959B01AC0160E070E080E89FE35E
S1130EC00C94AF040C948D050C9425070E94BD0569
S1130ED0D8F39923C9F3940F511DA3F391505040B3
S1130EE094F059F0882332F0660F771F881F9150D1
S1130EF05040C1F79E3F51052CF7880F911D9695E0
S1130F00879597F908955F3FACF0983E9CF0BB2716
S1130F10869577956795B79508F4B1609395C1F771
S1130F20BB0F58F711F460FFE8CF6F5F7F4F8F4F0F
S1130F309F4FE3CF0C94D805FA01DC01AA0FBB1F25
S1130F409B01AC01BF5728F422273327442750784C
S1130F5020C0B75190F4AB2F0024469537952795C0
S1130F60011CA395D2F3002071F0220F331F441FFC
S1130F70B395DAF30ED00C94420461307105A0E805
S1130F808A07B94630F49B01AC0166277727882786
S1130F909078309621F020833183428353830895DF
S1130FA0991B79E004C0991F961708F0961B881FB7
S1130FB07A95C9F780950895A29FB001B39FC001A7
S1130FC0A39F700D811D1124911DB29F700D811D71
S10D0FD01124911D0895F894FFCF39
S10F0FDAA573BC33CF7A75390A03943A2E
S9030000FC
